:020000040800F2
:1000000040270020B55C0008494900084B4900081A
:100010004D4900084F490008514900080000000000
:10002000000000000000000000000000534900082C
:1000300055490008000000005749000859490008C8
:10004000C55C0008C95C0008CD5C0008D15C0008F4
:10005000D55C0008D95C0008DD5C0008E15C0008A4
:10006000E55C0008E95C0008ED5C0008F15C000854
:10007000F55C0008F95C0008FD5C0008015D000803
:10008000055D0008095D00080D5D0008115D0008B0
:10009000CF490008155D0008195D00081D5D0008C6
:1000A000215D0008255D0008295D0008034A00085D
:1000B000C94C00082D5D0008315D0008355D000861
:1000C000395D00083D5D0008415D0008455D0008A0
:1000D000495D0008F35700084D5D0008515D0008B8
:1000E000555D0008595D00085D5D0008615D000810
:1000F000655D0008695D0008855000086D5D0008B9
:10010000715D0008755D0008A94E0008795D000862
:100110007D5D0008815D0008855D00085B49000881
:10012000895D00088D5D0008915D0008955D0008FF
:10013000995D00089D5D0008A15D0008A55D0008AF
:10014000A95D00089B490008AD5D0008B15D00088D
:10015000B55D0008B95D0008BD5D0008C15D00081F
:10016000C55D0008C95D0008CD5D0008D15D0008CF
:10017000D55D0008D95D0008DD5D0008E15D00087F
:10018000E55D0008E95D0008ED5D0008F15D00082F
:10019000F55D0008F95D0008FD5D0008015E0008DE
:1001A0000000000000000000055E00080168DFF8A4
:1001B000FC2B1160DFF8F81BC27A0A70027BDFF8B3
:1001C000F43B1A70427BDFF8F03B1A70827BDFF859
:1001D000EC3B1A70C27BDFF8E83B1A70027CDFF858
:1001E000E43B1A70407CDFF8E42B10700878032899
:1001F00004D10120DFF8D81B087003E00020DFF8ED
:10020000D01B0870704780B5C17A012962D1017B8B
:1002100001295FD10068412807D05BD3432826D04D
:1002200014D3452845D033D354E00120DFF8A41B74
:1002300008700121262001F070F90121252001F02C
:100240006CF90121142001F068F943E00220DFF885
:10025000841B08700121262001F05FF9012125206F
:1002600001F05BF90121142001F057F932E003207D
:10027000DFF8601B08700121262001F04EF90121F2
:10028000252001F04AF90121242001F046F921E05E
:100290000420DFF8401B08700121262001F03DF901
:1002A0000121252001F039F90121242001F035F93F
:1002B00010E00520DFF81C1B08700121262001F04A
:1002C0002CF90121252001F028F90121242001F039
:1002D00024F9FFE701BD1CB5DFF8F44A20780128B6
:1002E0004AD1DFF8CC0A00788DF80000DFF8C40AA4
:1002F00000788DF80100DFF8C00A00788DF8020060
:10030000DFF8B80A00788DF80300DFF8B40A007847
:100310008DF80400DFF8AC0A00788DF80500DFF8EE
:10032000AC0A00788DF80600DFF8800A00688DF8C6
:100330000700DFF8A00A0078012807D01AD30328A5
:100340000CD007D3052811D00CD313E0684600F079
:1003500041FC0FE0684600F03FFD0BE0684600F00E
:100360000DF807E0684600F067F903E0684600F022
:10037000C1FAFFE70020207013BD00003EB5040065
:10038000002001900020ADF80000A078451E00205C
:100390009FEDA80A6078012839D0022851D003289F
:1003A00060D0042876D0062800F08680072800F068
:1003B0009F80082800F0C480092800F0F7800D28ED
:1003C00002D00E2811D034E10820DFF8041D087097
:1003D0002800C0B201F026F902000023D2B292B286
:1003E0002100012000F052FE23E10920DFF8E01C8B
:1003F00008700C352800C0B201F014F90023C0B217
:10040000020092B22100012000F040FE11E1002024
:10041000DFF8BC1C08702800C0B20C2806DAE178AE
:1004200015352800C0B201F078F805E0B5F10B00F1
:10043000E178C0B201F071F82100022000F008FE5E
:10044000F7E00120DFF8881C08702800C0B201F036
:10045000E9F80023C0B2020092B22100012000F0AE
:1004600015FEE6E00220DFF8681C08706A4601A964
:100470002800C0B201F0DEFDBDF80030019A92B252
:100480002100012000F002FE002001900020ADF8C4
:100490000000CEE00320DFF8381C08700C3528007F
:1004A000C0B201F0BFF80023C0B2020092B2210036
:1004B000012000F0EBFDBCE00420DFF8141C087004
:1004C000012001F0FCF96079A27952EA002264204F
:1004D0004243E078217951EA00210A204143280073
:1004E000C0B201F04DFD2100022000F0B1FDA0E0FE
:1004F0000520DFF8DC1B08702800C0B204281ADAD7
:100500000121E078227952EA002200EE102AB8EEAA
:10051000C00A681CC0B202F0CBF80121E078227951
:1005200052EA002200EE102AB8EEC00A6D1C280024
:10053000C0B202F0BDF82100022000F089FD78E091
:100540000620DFF88C1B08702800C0B2002804D1F8
:100550001421082002F0D4FA18E02800C0B20128C3
:1005600004D114210B2002F0CBFA0FE02800C0B216
:10057000022804D114210C2002F0C2FA06E0EDB2E8
:10058000032D03D114210F2002F0BAFAF2EE040A6F
:1005900020EE200ABDEEC00A10EE102A0023D2B2CF
:1005A00092B22100012000F071FD42E00720DFF847
:1005B000201B08702800C0B2002807D10021252088
:1005C00000F0ABFF0021242000F0A7FF2800C0B2FC
:1005D000012807D10021262000F09FFFE178252087
:1005E00000F09BFF2800C0B2022807D1002125207F
:1005F00000F093FFE178242000F08FFFEDB2032D8F
:1006000012D10021242000F088FF002001F057F9CA
:10061000012505E003212800C0B200F07EFF6D1C1B
:100620002800C0B22728F5DB2100012000F010FDD2
:10063000FFE737BD000000003EB504000020019038
:100640000020ADF80000A078451E00209FEDA80A0C
:100650006078012839D0022851D0032860D00428BE
:1006600076D0062800F08680072800F09F800828B2
:1006700000F0C480092800F0F7800D2802D00E2871
:1006800011D034E10820DFF8481A08702800C0B201
:1006900000F0C8FF02000023D2B292B22100012074
:1006A00000F0F4FC23E10920DFF8241A08700C356F
:1006B0002800C0B200F0B6FF0023C0B2020092B220
:1006C0002100012000F0E2FC11E10020DFF8001A17
:1006D00008702800C0B20C2806DAE1781535280029
:1006E000C0B200F01AFF05E0B5F10B00E178C0B22E
:1006F00000F013FF2100022000F0AAFCF7E0012027
:10070000DFF8CC1908702800C0B200F08BFF00237E
:10071000C0B2020092B22100012000F0B7FCE6E076
:100720000220DFF8AC1908706A4601A92800C0B29F
:1007300001F080FCBDF80030019A92B22100012046
:1007400000F0A4FC002001900020ADF80000CEE0F5
:100750000320DFF87C1908700C352800C0B200F0C7
:1007600061FF0023C0B2020092B22100012000F01C
:100770008DFCBCE00420DFF858190870012001F05E
:100780009EF86079A27952EA002264204243E07820
:10079000217951EA00210A2041432800C0B201F02A
:1007A000EFFB2100022000F053FCA0E00520DFF861
:1007B000201908702800C0B208281ADA0121E07850
:1007C000227952EA002200EE102AB8EEC00A681C14
:1007D000C0B201F06DFF0121E078227952EA0022D7
:1007E00000EE102AB8EEC00A6D1C2800C0B201F05D
:1007F0005FFF2100022000F02BFC78E00620DFF8EC
:10080000D01808702800C0B2002804D11421082094
:1008100002F076F918E02800C0B2012804D11421B2
:100820000B2002F06DF90FE02800C0B2022804D1BD
:1008300014210C2002F064F906E0EDB2032D03D17F
:1008400014210F2002F05CF9F2EE040A20EE200AD7
:10085000BDEEC00A10EE102A0023D2B292B22100DF
:10086000012000F013FC42E00720DFF86418087054
:100870002800C0B2002807D10021252000F04DFE3D
:100880000021242000F049FE2800C0B2012807D131
:100890000021262000F041FEE178252000F03DFEF9
:1008A0002800C0B2022807D10021252000F035FE23
:1008B000E178242000F031FEEDB2032D12D10021A9
:1008C000242000F02AFE002000F0F9FF012505E0B9
:1008D00003212800C0B200F020FE6D1C2800C0B229
:1008E0002728F5DB2100012000F0B2FBFFE737BD30
:1008F000000000003EB50400002001900020ADF88B
:100900000000A078451E00209FEDB00A6078012805
:1009100039D0022851D0032860D0042876D0062888
:1009200000F08680072800F0AF80082800F0D4800F
:10093000092800F007810D2802D00E2811D044E1CB
:100940000820DFF88C1708702800C0B200F06AFE9B
:1009500002000023D2B292B22100012000F096FBE7
:1009600033E10920DFF8681708700C352800C0B2A1
:1009700000F058FE0023C0B2020092B22100012014
:1009800000F084FB21E10020DFF844170870280004
:10099000C0B20C2806DAE17815352800C0B200F0A4
:1009A000BCFD05E0B5F10B00E178C0B200F0B5FD8B
:1009B0002100022000F04CFB07E10120DFF81017B6
:1009C00008702800C0B200F02DFE0023C0B2020063
:1009D00092B22100012000F059FBF6E00220DFF87E
:1009E000F01608706A4601A92800C0B201F022FB87
:1009F000BDF80030019A92B22100012000F046FBC0
:100A0000002001900020ADF80000DEE00320DFF8B8
:100A1000C01608700C352800C0B200F003FE002399
:100A2000C0B2020092B22100012000F02FFBCCE006
:100A30000420DFF89C160870012000F040FF280019
:100A4000C0B201280BD1E078217951EA002189B2A6
:100A5000DFF880069FED5E0A01F066FF0FE0607927
:100A6000A27952EA002264204243E078217951EAD7
:100A700000210A2041432800C0B201F081FA210080
:100A8000022000F0E5FAA0E00520DFF84416087027
:100A90002800C0B204281ADA0121E078227952EA4B
:100AA000002200EE102AB8EEC00A681CC0B201F0A5
:100AB000FFFD0121E078227952EA002200EE102A9F
:100AC000B8EEC00A6D1C2800C0B201F0F1FD210093
:100AD000022000F0BDFA78E00620DFF8F415087077
:100AE0002800C0B2002804D11421082002F008F820
:100AF00018E02800C0B2012804D114210B2001F015
:100B0000FFFF0FE02800C0B2022804D114210C20FE
:100B100001F0F6FF06E0EDB2032D03D114210F2002
:100B200001F0EEFFF2EE040A20EE200ABDEEC00A4C
:100B300010EE102A0023D2B292B22100012000F060
:100B4000A5FA42E00720DFF8881508702800C0B237
:100B5000002807D10021252000F0DFFC00212420FF
:100B600000F0DBFC2800C0B2012807D100212620BC
:100B700000F0D3FCE178252000F0CFFC2800C0B2C3
:100B8000022807D10021252000F0C7FCE1782420AD
:100B900000F0C3FCEDB2032D12D10021242000F09F
:100BA000BCFC002000F08BFE012505E0032128009D
:100BB000C0B200F0B2FC6D1C2800C0B22728F5DBE3
:100BC0002100012000F044FAFFE737BD00000000DB
:100BD0003333534038B50400A078451E00209FED04
:100BE0007A0A6078012835D0022842D0042851D0F2
:100BF000062861D007287BD0082800F082800928C9
:100C000000F0AC800D2802D00E2811D0CDE00820D5
:100C1000DFF8BC1408702800C0B200F003FD020029
:100C20000023D2B292B22100012000F02FFABCE0E2
:100C30000920DFF89C1408700C352800C0B200F0C1
:100C4000F1FC0023C0B2020092B22100012000F0AA
:100C50001DFAAAE00020DFF878140870E1786D1C16
:100C60002800C0B200F059FC2100022000F0F0F989
:100C70009BE00120DFF8581408702800C0B200F093
:100C8000D1FC0023C0B2020092B22100012000F08A
:100C9000FDF98AE00320DFF8381408700C352800CD
:100CA000C0B200F0BFFC0023C0B2020092B221002B
:100CB000012000F0EBF978E00420DFF8141408704C
:100CC000012000F0FCFD6079A27952EA0022642044
:100CD0004243E078217951EA00210A20414328006B
:100CE000C0B201F04DF92100022000F0B1F95CE042
:100CF0000520DFF8DC1308702100022000F0A8F9BD
:100D000053E00620DFF8C81308702800C0B200289E
:100D100004D11421082001F0F3FE0FE02800C0B236
:100D2000012804D114210B2001F0EAFE06E0EDB207
:100D3000022D03D114210C2001F0E2FEF2EE040A90
:100D400020EE200ABDEEC00A10EE102A0023D2B217
:100D500092B22100012000F099F926E00720DFF887
:100D600070130870EDB2022D1AD10021242000F07A
:100D7000D4FB0021252000F0D0FB0021262000F02C
:100D8000CCFB002000F09BFD012505E0032128009D
:100D9000C0B200F0C2FB6D1C2800C0B22728F5DBF2
:100DA0002100022000F054F9FFE731BD2C0700209C
:100DB00036070020370700203807002039070020B9
:100DC0003A0700203B070020000000003C070020FD
:100DD0003D0700203F0700203EB5040000200190A1
:100DE0000020ADF80000A078451E00209FEDB70A56
:100DF0006078012837D002284ED003285CD0042820
:100E000071D0062800F08080072800F0988008281C
:100E100000F0AF80092800F0D8800D2802D00E28FD
:100E200010D014E10820AA4908702800C0B200F0D0
:100E3000F9FB02000023D2B292B22100012000F09F
:100E400025F904E10920A24908700C352800C0B238
:100E500000F0E8FB0023C0B2020092B221000120A2
:100E600000F014F9F3E00020994908702800C0B29E
:100E70000A2806DAE17815352800C0B200F04DFBEB
:100E800005E0B5F10900E178C0B200F046FB2100B1
:100E9000022000F0DDF8DAE001208D49087028001A
:100EA000C0B200F0BFFB0023C0B2020092B221002A
:100EB000012000F0EBF8CAE00220854908706A467C
:100EC00001A92800C0B201F0B5F8BDF80030019AC0
:100ED00092B22100012000F0D9F8002001900020FA
:100EE000ADF80000B3E00320794908700C35280004
:100EF000C0B200F097FB0023C0B2020092B2210002
:100F0000012000F0C3F8A2E004207149087001201C
:100F100000F0D5FC6079A27952EA002264204243B5
:100F2000E078217951EA00210A2041432800C0B22B
:100F300001F026F82100022000F08AF887E0052061
:100F4000634908702800C0B206280DDA0121E07854
:100F5000227952EA002200EE102AB8EEC00A6D1C77
:100F60002800C0B201F0A4FB2100022000F070F8BC
:100F70006DE00620564908702800C0B2002804D150
:100F80000A21082001F0BCFD0FE02800C0B20128B2
:100F900004D10A210B2001F0B3FD06E0EDB2022DD1
:100FA00003D10A210C2001F0ABFDF2EE040A20EE81
:100FB000200ABDEEC00A10EE102A0023D2B292B26F
:100FC0002100012000F062F841E00720404908704C
:100FD0002800C0B2002807D10221252000F09DFA88
:100FE0000221242000F099FA2800C0B2012807D17C
:100FF0000221262000F091FAE178252000F08DFAF8
:101000002800C0B2022807D10221252000F085FA6D
:10101000E178242000F081FAEDB2032D12D10221F3
:10102000242000F07AFA002000F049FC012505E0B8
:1010300003212800C0B200F070FA6D1C2800C0B275
:101040002728F5DB2100012000F002F8FFE737BD7B
:1010500038B518231E4D204C2A785A432244D072AA
:101060004878107388785073C87890730879D07373
:1010700048791074887950741100287803FB00F3C4
:1010800004EB0300406901F0B7FE31BDF8B5182547
:101090000F4F114E3C786C433444E0724878207313
:1010A00088786073100080B2000AA073E2731800A1
:1010B00080B2000A207463742100387805FB00F5C3
:1010C00006EB0500406901F097FEF1BD000000004D
:1010D0003E07002054040020000000207CB50121C0
:1010E000022001F009FF0121102001F005FF01217C
:1010F000082001F001FF01208DF8040000208DF888
:10110000060001208DF8070003208DF805004FF43C
:1011100080540094DFF854546946280001F036FFEB
:101120004FF4806000906946280001F02FFF4FF4D3
:10113000004000906946280001F028FF4FF48040ED
:1011400000906946280001F021FF4FF400600090F4
:10115000DFF81C646946300001F018FF0094DFF8E6
:1011600014446946200001F011FF4FF48051200023
:1011700001F05EFF4FF40061300001F059FF4FF4C1
:101180008041280001F056FF73BD7CB5FFF7A6FF34
:101190000121042001F0B0FE0121082001F0ACFE85
:1011A0000121402001F0A8FE01208DF8040000205C
:1011B0008DF8060001208DF8070003208DF805004A
:1011C0004FF480600090DFF8B0436946200001F0E2
:1011D000DDFE4FF4007500956946200001F0D6FE53
:1011E0004FF4805000906946200001F0CFFE4FF48C
:1011F000006000906946200001F0C8FE4FF40050E6
:1012000000906946200001F0C1FE4FF400400090BC
:101210006946200001F0BAFE01200090DFF8546317
:101220006946300001F0B2FE0220009069463000AD
:1012300001F0ACFE102000906946300001F0A6FEDF
:10124000042000906946300001F0A0FE20200090AC
:101250006946300001F09AFE00208DF8040003205A
:101260008DF805004FF4804000906946200001F0A1
:101270008DFE00956946DFF8040301F087FE012129
:10128000300001F0D5FE4FF40041200001F0D0FE07
:101290004FF40051200001F0CBFE4FF4006120001C
:1012A00001F0C8FE73BD70B504000D002000C0B28F
:1012B000252826D12800C0B2012808D1AD4E022130
:1012C000300001F0B5FE0421300001F0B1FE28002D
:1012D000C0B2022808D1A74E0221300001F0AAFEB8
:1012E0000421300001F0A4FE2800C0B2032808D178
:1012F000A04E0221300001F09DFE0421300001F0DB
:1013000099FE2000C0B2262826D12800C0B20128AC
:1013100008D1984E1021300001F08AFE20213000C3
:1013200001F086FE2800C0B2022808D1914E10219B
:10133000300001F07FFE2021300001F079FE28000E
:10134000C0B2032808D18B4E1021300001F072FE8C
:101350002021300001F06EFE2000C0B200286DD0C8
:101360002000C0B2152869DA834E4FF48061300046
:1013700001F05EFE2800C0B201280ED18048012194
:101380002200D2B200EB420202F8021C012122002C
:10139000D2B200EB420000F8011C2800C0B20228C3
:1013A0000ED1774800212200D2B200EB420202F8AF
:1013B000021C01212200D2B200EB420000F8011C05
:1013C000EDB2032D0DD16E4800212200D2B200EB08
:1013D000420202F8021C0021E4B200EB440000F8D3
:1013E000011C272419E04FF40071300001F022FEA7
:1013F0000DE04FF48051300001F01CFE6048005DAC
:101400000128F0D14FF40071300001F011FE4FF4CB
:101410008051300001F00CFE641E002CE9D54FF421
:101420000061300001F004FE4FF40061300001F073
:1014300001FE4FF48061300001F0FCFD70BD70B51D
:1014400005000E00494C4FF48051200001F0F0FDE2
:101450003000C0B201280ED14A4801212A00D2B280
:1014600000EB420202F8021C01212A00D2B200EB7A
:10147000420000F8011C3000C0B202280ED14148E1
:1014800000212A00D2B200EB420202F8021C012124
:101490002A00D2B200EB420000F8011CF6B2032E83
:1014A0000DD1384800212A00D2B200EB420202F8E6
:1014B000021C0021EDB200EB450000F8011C2025C4
:1014C00019E04FF48061200001F0B4FD0DE04FF40D
:1014D0000041200001F0AEFD2A48405D0128F0D116
:1014E0004FF48061200001F0A3FD4FF40041200083
:1014F00001F09EFD6D1E002DE9D54FF480412000C6
:1015000001F096FD4FF48041200001F093FD4FF46F
:101510008051200001F08EFD70BD80B500220300D7
:10152000DBB2272B20DA0B00DBB2012B01D1012229
:1015300009E00B00DBB2002B01D1022203E0C9B2AB
:10154000032900D103220100C9B21539102906D29E
:1015500014381100C9B2C0B2FFF771FF04E01100E6
:10156000C9B2C0B2FFF79FFE01BD000000100240EB
:1015700000040240000C0240001802400008024033
:10158000140600203C0600201CB50121022001F0B9
:10159000B3FC0121082001F0AFFC0121102001F073
:1015A000ABFC00208DF8040002208DF8050000241B
:1015B0000AE0364830F8140000906946344850F884
:1015C000240001F0E3FC641C0C2CF2DB13BD1CB501
:1015D0000121022001F090FC0121042001F08CFC8B
:1015E0000121102001F088FC0121202001F084FC61
:1015F0000121402001F080FC00208DF80400022031
:101600008DF8050000240AE0224830F8140000900C
:101610006946214850F8240001F0B8FC641C0C2CE9
:10162000F2DB13BD80B500210100C9B20C2911DA2B
:1016300016490200D2B231F81210154AC0B252F85F
:10164000200001F0EBFCC0B2012801D101201CE018
:1016500000201AE00100C9B2182915DA0D4902006C
:10166000D2B201EB420131F8181C0B4AC0B202EBB6
:10167000800050F8300C01F0D1FCC0B2012801D13B
:10168000002002E0012000E0002002BD88010020CF
:101690002001002070010020F00000203EB5012153
:1016A000012001F045FC0121012001F033FC012162
:1016B000082001F02FFC0121022001F039FC01215A
:1016C000012001F019FC0121022001F015FC01218B
:1016D000042001F011FC0121082001F00DFC012182
:1016E000102001F009FC0121402001F005FC02203E
:1016F0008DF8040003208DF8050000208DF8060009
:1017000002208DF8070000240CE0DFF8140930F8FF
:10171000140000906946DFF80C0950F8240001F02D
:1017200035FC641C082CF0DBDFF8FC4801220921A1
:10173000200001F088FCDFF8F45802220021280084
:1017400001F081FC01220D21200001F07CFC01222E
:101750000A21DFF8DC0801F076FC022203212800D0
:1017600001F071FC01220F21280001F06CFCDFF870
:10177000944C03220621200001F065FC032208217D
:10178000200001F060FC37BD3EB501215FF48030E0
:1017900001F0CEFB01215FF4003001F0C9FB012113
:1017A0005FF4802001F0C4FB0121402001F0B2FB76
:1017B0000121802001F0AEFB01214FF4807001F087
:1017C000A9FB0121012001F097FB0121022001F07A
:1017D00093FB0121082001F08FFB0121102001F073
:1017E0008BFB0121202001F087FBDFF84448092210
:1017F0000E21200001F027FCDFF8305809220621D5
:10180000280001F020FC09220721280001F01BFC20
:1018100003220521DFF8100801F015FC032208213E
:10182000200001F010FC03220921200001F00BFC34
:1018300002208DF8040003208DF8050000208DF8AB
:10184000060001208DF8070000240CE0DFF8B80B3B
:1018500030F8140000906946DFF8B00B50F824000F
:1018600001F094FB641C062CF0DB01208DF80400D1
:1018700000208DF8060002208DF8070000240CE0FF
:10188000DFF88C0B30F8140000906946DFF8840B09
:1018900050F8240001F07AFB641C062CF0DB0120D8
:1018A0000090DFF8744B6946200001F06FFB0121C6
:1018B000200001F0BDFB002000F001F837BD38B575
:1018C000C0B200281CD1DFF84C4BDFF8445B2988FC
:1018D000206801F0AFFB6988606801F0ABFBA98864
:1018E000A06801F0A7FBE988E06801F0A3FB298963
:1018F000206901F09FFB6989606901F09BFB1BE097
:10190000DFF8104BDFF8085B2988206801F090FBB6
:101910006988606801F08CFBA988A06801F088FBE9
:10192000E988E06801F084FB2989206901F080FBE7
:101930006989606901F07CFB31BD2DE9F84388B00D
:101940005920ADF800000020ADF8020040F2E73069
:1019500001900020ADF80800DFF8C04A6946200079
:1019600001F09AFBDFF8B85A6946280001F094FBB1
:10197000DFF8B06A6946300001F08EFBDFF8A87A24
:101980006946380001F088FBDFF8A08A69464046C6
:1019900001F082FBDFF8989A6946484601F07CFB2B
:1019A0006020ADF80C000120ADF80E004FF4FA7085
:1019B00005900220ADF8180003A9200001F0C4FB37
:1019C00003A9280001F0C0FB03A9300001F0BCFB13
:1019D00003A9380001F0B8FB03A9404601F0B4FBAD
:1019E00003A9484601F0B0FB0821200001F0FAFBF2
:1019F0000821280001F0F6FB0821300001F0F2FB7D
:101A00000821380001F0EEFB0821404601F0EAFB16
:101A10000821484601F0E6FB0121200001F078FB97
:101A20000121280001F074FB0121300001F070FB5E
:101A30000121380001F06CFB0121404601F068FBF8
:101A40000121484601F064FB0021200001F06EFBFB
:101A50000021280001F06AFB0021300001F066FB44
:101A60000021380001F062FB0021404601F05EFBDE
:101A70000021484601F05AFB09B0BDE8F08370B57B
:101A800004000E0015000021200001F04FFBC92EBC
:101A90001BD301225921200001F035FBDFF87C091E
:101AA000844207D0DFF87809844203D0DFF8740954
:101AB000844205D1DFF87C09B0FBF6F0400020E05D
:101AC000DFF87009B0FBF6F01BE0012242F2C421FE
:101AD000200001F018FBDFF84409844207D0DFF84A
:101AE0004009844203D0DFF83C09844205D142F228
:101AF0001070B0FBF6F0400003E042F21070B0FB53
:101B0000F6F0D5F16405411EE16205FB00F56420A5
:101B1000B5FBF0F1200001F063FB0121200001F092
:101B2000F7FA0121200001F001FB70BD30B587B04C
:101B3000B320ADF810000020ADF812004FF6FF7092
:101B400005900020ADF81800DFF8EC4804A920004B
:101B500001F0A2FADFF8E45804A9280001F09CFA89
:101B60000020ADF800000020ADF802000120ADF823
:101B700004000020ADF806000020ADF8080069461A
:101B8000200001F037FB0420ADF800000220ADF882
:101B900002000220ADF804006946200001F02AFB93
:101BA0000020ADF800000020ADF802000120ADF8E3
:101BB00004000020ADF806000020ADF808006946DA
:101BC000280001F017FB0420ADF800000220ADF85A
:101BD00002000220ADF804006946280001F00AFB6B
:101BE0000820ADF800000020ADF802000120ADF89B
:101BF00004000020ADF806000020ADF8080069469A
:101C0000200001F0F7FA0C20ADF800000220ADF83A
:101C100002000220ADF804006946200001F0EAFA53
:101C20000820ADF800000020ADF802000120ADF85A
:101C300004000020ADF806000020ADF80800694659
:101C4000280001F0D7FA0C20ADF800000220ADF812
:101C500002000220ADF804006946280001F0CAFA2B
:101C600001220221200001F02BFB0122042120008F
:101C700001F026FB01220221280001F021FB0122B4
:101C80000421280001F01CFB01220821200001F0A2
:101C900017FB01221021200001F012FB0122082174
:101CA000280001F00DFB01221021280001F008FBA3
:101CB0008021200001F040FB8021280001F03CFB46
:101CC0002021200001F026FB2021280001F022FB2A
:101CD0000121200001F02AFA0121280001F026FA52
:101CE0002E208DF80C000F208DF80D0000208DF8AF
:101CF0000E0001208DF80F0003A801F09CFB1B20B3
:101D00008DF80C000F208DF80D0000208DF80E00CE
:101D100001208DF80F0003A801F08DFB07B030BD46
:101D200018B587B05920ADF810000020ADF81200AA
:101D30005FF0FF3005900020ADF8180004A95FF0B7
:101D4000804001F0A9F9DFF8F84604A9200001F06D
:101D5000A3F90020ADF800000020ADF8020001203A
:101D6000ADF804000020ADF806000020ADF8080032
:101D700069465FF0804001F03DFA0420ADF80000B4
:101D80000220ADF802000220ADF8040069465FF0C1
:101D9000804001F02FFA0020ADF800000020ADF8DF
:101DA00002000120ADF804000020ADF8060000207C
:101DB000ADF808006946200001F01CFA0420ADF8D7
:101DC00000000220ADF802000220ADF804006946D0
:101DD000200001F00FFA0820ADF800000020ADF857
:101DE00002000120ADF804000020ADF8060000203C
:101DF000ADF8080069465FF0804001F0FBF90C2067
:101E0000ADF800000220ADF802000220ADF8040099
:101E100069465FF0804001F0EDF90C20ADF800005C
:101E20000020ADF802000120ADF804000020ADF85C
:101E300006000020ADF808006946200001F0DAF93C
:101E40000820ADF800000220ADF802000220ADF835
:101E500004006946200001F0CDF9012202215FF063
:101E6000804001F02DFA012204215FF0804001F052
:101E700027FA01220221200001F022FA0122042186
:101E8000200001F01DFA012208215FF0804001F0DE
:101E900017FA012210215FF0804001F011FA0122AF
:101EA0000821200001F00CFA01221021200001F08D
:101EB00007FA01215FF0804001F038F9012120008C
:101EC00001F034F91C208DF80C000F208DF80D0066
:101ED00000208DF80E0001208DF80F0003A801F0FE
:101EE000AAFA32208DF80C000F208DF80D0000208A
:101EF0008DF80E0001208DF80F0003A801F09BFA69
:101F000008B010BD1FB50121022001F003F8012126
:101F1000042000F0FFFFDFF82C450021200001F035
:101F2000F1F90721200001F0FEF90020ADF80200D0
:101F30000020ADF808004FF6FF7001900020ADF8CA
:101F400000006946200001F0A7F86946200001F072
:101F5000A3F80121200001F0E9F8DFF8EC4430217A
:101F6000200001F0CFF90721200001F0DCF96946DB
:101F7000200001F091F80121200001F0D7F81FBDE9
:101F800010B50300DBB2052B00DB05204CF250330B
:101F9000994200D3190042F210739A4200D31A00FA
:101FA000DFF8A8340400E4B253F83440A14208D169
:101FB0000400E4B203EBC4046468A24201D101202E
:101FC00028E00400E4B243F834100400E4B203EB68
:101FD000C4035A6000EE101AB8EE400ADFED0E0A94
:101FE00020EE200ABCEEC00A00EE902AF8EE600A4D
:101FF0009FED0A1A60EE810AFCEEE00A10EE902ACC
:1020000010EE101ADFF84834C0B253F82000FFF782
:1020100036FD002010BD0000CDCCCC3D0AD7233CBE
:10202000E8010020500100200010024000000240A2
:1020300000040240C0B2002811D0022800F09980AC
:1020400053D3042800F00181C0F0C980062800F0B5
:102050006881C0F03081072800F09981CDE100202F
:10206000DFF8F0331860DFF8F0030023036000208E
:10207000DFF8E8331860DFF8E8030023036000208E
:10208000DFF8E0331860DFF8E0030023036000208E
:10209000DFF8D8331860DFF8D8030023036000208E
:1020A000DFF8D0331860DFF8D0030023036000208E
:1020B000DFF8C8331860DFF8C8030023036000208E
:1020C000DFF8C0331860DFF8C00300230360DFF8D7
:1020D000BC0300680860DFF8B80390ED000ABDEEAD
:1020E000C00A10EE100A10808BE10020DFF86C337C
:1020F0001860DFF86C03002303600020DFF864330E
:102100001860DFF86403002303600020DFF85C330D
:102110001860DFF85C03002303600020DFF854330D
:102120001860DFF85403002303600020DFF84C330D
:102130001860DFF84C03002303600020DFF844330D
:102140001860DFF84403002303600020DFF83C330D
:102150001860DFF83C0300230360BE480068086095
:10216000BD4890ED000ABDEEC00A10EE100A1080C6
:1021700047E10020B74B1860B748002303600020F8
:10218000B84B1860B848002303600020B74B1860B4
:10219000B748002303600020B64B1860B648002300
:1021A00003600020B54B1860B54800230360002091
:1021B000B44B1860B448002303600020B34B186090
:1021C000B34800230360A54800680860A44890ED68
:1021D000000ABDEEC00A10EE100A108011E10020C6
:1021E0009C4B18609C480023036000209B4B1860A8
:1021F0009B480023036000209C4B18609C480023F0
:10220000036000209B4B18609B4800230360002064
:102210009A4B18609A48002303600020994B18607D
:102220009948002303600020984B186098480023C9
:1022300003608C48006808608B4890ED000ABDEE92
:10224000C00A10EE100A1080DBE00020814B1860FD
:102250008148002303600020804B186080480023E1
:10226000036000207F4B18607F480023036000203C
:10227000804B186080480023036000207F4B18606B
:102280007F480023036000207E4B18607E480023B7
:10229000036000207D4B18607D4800230360734875
:1022A00000680860724890ED000ABDEEC00A10EEAA
:1022B000100A1080A5E00020664B186066480023D5
:1022C00003600020654B1860654800230360002010
:1022D000644B18606448002303600020674B18605B
:1022E0006748002303600020664B1860664800239F
:1022F00003600020654B18606548002303600020E0
:102300005A4B18605A48002303605A480068086016
:10231000594890ED000ABDEEC00A10EE100A108078
:102320006FE000204B4B18604B48002303600020F7
:102330004A4B18604A48002303600020494B18604C
:1023400049480023036000204A4B18604A48002394
:10235000036000204B4B18604B48002303600020B3
:102360004A4B18604A480023036000203F4B186026
:102370003F4800230360414800680860404890EDF2
:10238000000ABDEEC00A10EE100A108039E00020ED
:10239000304B186030480023036000202F4B18603A
:1023A0002F480023036000202E4B18602E48002386
:1023B000036000202F4B18602F480023036000208B
:1023C0002E4B18602E480023036000202F4B18600E
:1023D0002F48002303600020244B1860244800236A
:1023E0000360284800680860274890ED000ABDEEA9
:1023F000C00A10EE100A108003E0002008600020E0
:10240000108070470008024008020020B801002038
:1024100014020020D0010020000C024000400140C6
:10242000004401400048014000180040001C0040EA
:102430000020004040420F00000001400004014025
:10244000000C00400004004000080040E4050020AB
:10245000A0010020E8060020EC06002090060020E5
:1024600094060020C0060020C4060020F0060020CC
:10247000F4060020B8060020BC0600201C0700203F
:1024800020070020240700202807002088060020BD
:102490008C0600201CB50121012000F02DFD01213A
:1024A000042000F029FD0121082000F025FD012174
:1024B000102000F021FD01214FF4804000F02AFDA2
:1024C00003208DF8050002208DF8040000208DF80F
:1024D000060001208DF8070008200090DFF8FC447A
:1024E0006946200000F052FD05220321200000F083
:1024F000AAFD08200090DFF8E8446946200000F0BB
:1025000045FD05220321200000F09DFD01208DF8EE
:10251000040002208DF807004FF400600090DFF8FF
:10252000C4446946200000F031FD00224FF40061F0
:10253000200000F081FD01208DF8040002200090B1
:10254000DFF8A4446946200000F020FD01220221AA
:10255000200000F071FD13BD18B585B04FF4404068
:10256000ADF800004FF48270ADF802000020ADF825
:1025700004000020ADF806000120ADF808004FF47B
:102580000070ADF80A001020ADF80C000020ADF886
:102590000E00DFF858446946200000F087FF2188CC
:1025A0004DF6FF70014021800121200000F09BFFCB
:1025B00006B010BD10B5FFF76DFFFFF7CDFFDFF8D8
:1025C000284400220221200000F036FD4FF4704024
:1025D00000F029F801220221200000F02DFD002248
:1025E0000221200000F028FD48F20C0000F01BF84A
:1025F00001220221200000F01FFD00220221200004
:1026000000F01AFD4CF2FF0000F00DF8012202214B
:10261000200000F011FD00224FF40061DFF8C40338
:1026200000F00AFD10BD1CB504000222002168461E
:1026300000F072FF20008DF800006846A4B2240A62
:102640004470DFF8A843417889B2200000F059FFB8
:102650000221200000F057FF0028F9D09DF800105B
:1026600089B2200000F04DFF8021200000F04BFFD8
:102670000128F9D013BD38B5DFF87443228801234F
:10268000401E83409A432280C9B201290ED1DFF84F
:10269000585300220221280000F0CEFC2088FFF7CA
:1026A000C2FF01220221280000F0C6FC31BD00005B
:1026B00070B52DED028B04000D00F1EE040A80EEE2
:1026C000200ADFEDC20A20EE208A2900C9B22000CC
:1026D000C0B2FFF7D0FFBDEEC80A10EE101A89B2E3
:1026E00040F6FF704143642091FBF0F6EDB2012DFE
:1026F00014D1DFF8F45200220221280000F09CFCE3
:10270000E4B2601E80B2000310FA86F080B2FFF7D8
:102710008AFF01220221280000F08EFCBDEC028B12
:1027200070BD18B595B00121012000F0E5FB012135
:102730005FF4001000F0E0FB01215FF0005000F0BA
:10274000E9FB1020009003208DF804006946A6489C
:1027500000F01CFC04200290002003900020059053
:102760000020049002A9002000F0E0FE5FF060600D
:102770000690A0480790A048089040200990642047
:102780000A9000200B904FF480600C904FF4006092
:102790000D904FF400500E900020139000201490E4
:1027A0004FF480700F905FF400301090934C06A9A6
:1027B000200000F0FDFE0121200000F021FF01219A
:1027C000002000F0C9FE0121002000F0D9FE16B063
:1027D00010BD18B595B00121012000F08DFB01213D
:1027E0005FF4001000F088FB01215FF0005000F062
:1027F00091FB2020009003208DF8040069467A4860
:1028000000F0C4FB042002900020039000200590FB
:102810000020049002A9102000F088FE5FF06060A4
:1028200006907748079074480890402009906420EB
:102830000A9000200B904FF480600C904FF40060E1
:102840000D904FF400500E90002013900020149033
:102850004FF480700F905FF400301090694C06A91F
:10286000200000F0A5FE0121200000F0C9FE01219A
:10287000102000F071FE0121102000F081FE16B042
:1028800010BD3EB504000D000121102000F042FBF8
:10289000A4B20194ADF800500020ADF80200002071
:1028A000ADF8080000208DF80A00574C694620005A
:1028B00000F0F2FB2021200000F02CFD012120007F
:1028C00000F034FC37BD80B580B20A2148430021B6
:1028D00000214E4A64280DD242F20F7142F2107369
:1028E000B2FBF3F2B2FBF0F0401E89B280B2FFF708
:1028F000C8FF17E040F6B83188420BD26321642349
:10290000B2FBF3F2B2FBF0F0401E89B280B2FFF7E7
:10291000B8FF07E00021B2FBF0F0401E89B280B2A0
:10292000FFF7AFFF01BD00002DE970432DED028BD5
:10293000B0EE408A04000D000020DFED258A00265D
:1029400037E0B2EE040A28EE000ADFED220A80EE3C
:10295000200ADFED210A20EE200A10EE100A00F016
:102960005FFE80468946300000B200EE100AB8EEE5
:10297000C00A20EE280A10EE100A00F051FE41ECC9
:10298000100B00F074FE51EC100B0022204B00F0F5
:1029900075FE42464B4600F099FF00225FF08043EF
:1029A00001F06AF801F08CF9310009B224F8110045
:1029B000761C300000B26428C3DB280080B2FFF729
:1029C00082FFBDEC028BBDE8708300000000C842AE
:1029D000F5AD803D0000044200F07F45000C024050
:1029E0000008024000100240000002400038004091
:1029F0002002002008740040540400208860024037
:102A000014740040A060024000100040405489004F
:102A10000000F03F38B58CB00121042000F06CFAC2
:102A20000121202000F068FA01214FF4806000F0BD
:102A30007FFA03208DF8040000208DF807004FF482
:102A400080600090494C6946200000F09FFA022007
:102A50000090474D6946280000F098FA0420009045
:102A60006946280000F092FA202000906946200074
:102A700000F08CFA01214FF4806000F067FA002129
:102A80004FF4806000F062FA002002900020059070
:102A9000002004905FF48030039002A801F051F907
:102AA0000020069000208DF81C0000208DF81D00ED
:102AB0000020089000200A9004208DF82C002D4C56
:102AC00006A9200001F018F90121200001F048F9C1
:102AD0000DB030BD10B50100264C02230122C9B251
:102AE000200001F04AF9200001F0ACF90221200099
:102AF00001F0B8F90028F9D0200001F0A8F910BDC4
:102B0000F8B504000D000026002709E02000C0B23F
:102B1000FFF7E0FF16FA80F6052001F0E1F97F1CCF
:102B200038002900C0B2C9B28842EFD3EDB2B6FB7B
:102B3000F5F000EE100AB8EE400ADFED0B0A80EE69
:102B4000200A10EE100A00F06BFD5FF066320A4BAF
:102B500000F0BCFE00225FF0804300F0B7FE01F001
:102B6000E1F900EE100AF1BD00F07F4500140240CB
:102B7000000802400022014066660A407CB501213F
:102B8000012000F0B9F90121022000F0B5F901217E
:102B90005FF0007000F0BEF901215FF0806000F08E
:102BA000B9F900208DF8060001208DF807000320F8
:102BB0008DF8050002208DF804004FF48054009435
:102BC000894D6946280000F0E1F94FF4005000906B
:102BD000864E6946300000F0D9F94FF4006000904D
:102BE0006946280000F0D2F900946946300000F0F0
:102BF000CDF909220C21280000F025FA09220B2129
:102C0000280000F020FA09220D21300000F01BFA04
:102C100009220C21300000F016FA73BD1FB5040024
:102C200000200B009BB2FA2B00D10C2089B2B1F529
:102C3000FA7F00D106200B218DF8081001218DF8B4
:102C40000910C0B2ADF804008DF8062000208DF800
:102C5000070000208DF80B0000208DF80C000020EC
:102C60008DF80D0000208DF80E0000208DF80A0070
:102C700000208DF80F0001A9200001F087F95C48C1
:102C800084420FD114208DF8000008208DF8010037
:102C900000208DF8020001208DF80300684600F046
:102CA000CAFB11E0534884420ED141208DF8000048
:102CB00009208DF8010000208DF8020001208DF818
:102CC0000300684600F0B7FB002004B010BD1FB53C
:102CD000474C4168A14240D1017A8DF80A10002189
:102CE0008DF80B1001218DF80C100178042911D1F9
:102CF000C168490BADF80010C168C90051F004016A
:102D0000ADF802100169490BADF804100069ADF887
:102D1000060013E00178002910D1C1684901ADF81F
:102D200000100021ADF802100069400150F01F00B2
:102D3000ADF804004FF6FF70ADF806000020ADF8C6
:102D4000080001208DF80D00684601F0A4F9012269
:102D50000221200001F06FFB44E0264C4168A142B3
:102D600040D1017A0F318DF80A1000218DF80B1037
:102D700001218DF80C100178042911D1C168490B8B
:102D8000ADF80010C168C90051F00401ADF802109F
:102D90000169490BADF804100069ADF8060013E0B5
:102DA0000178002910D1C1684901ADF80010002157
:102DB000ADF802100069400150F01F00ADF80400AA
:102DC0004FF6FF70ADF806000120ADF808000120B5
:102DD0008DF80D00684601F05EF9012210212000F7
:102DE00001F029FB1FBD000000000240000402406A
:102DF000006400400068004070B50400200001F04D
:102E0000B7F90500002600E0761C2900C9B22000B1
:102E100001F04DFA002805D1300080B240F6FF7174
:102E20008842F1DBB6B240F6FF70864201DB01203A
:102E300000E0002070BD000010B40021002100213E
:102E4000022100210221DFF82021116811F00C017C
:102E5000002904D0042906D0082908D02DE0DFF885
:102E6000101101602CE0DFF80C11016028E0DFF8A0
:102E7000FC402168C1F38051236813F03F0300290F
:102E800009D0DFF8F010B1FBF3F32168C1F388112A
:102E900001FB03F108E0DFF8D810B1FBF3F3216880
:102EA000C1F3881101FB03F12368C3F301435B1CE9
:102EB0005B00B1FBF3F1016002E0DFF8B4100160E8
:102EC000116811F0F0010909DFF8AC30595C0468B1
:102ED000CC404460116811F4E051890A595C44689F
:102EE000CC408460116811F46041490B595C426820
:102EF000CA40C26010BC7047C9B2002904D01F4943
:102F00000A681043086004E01C490A6832EA0000BD
:102F100008607047C9B2002904D019490A681043F3
:102F2000086004E016490A6832EA00000860704749
:102F3000C9B2002904D013490A681043086004E0AC
:102F400010490A6832EA000008607047C9B20029D7
:102F500004D00D490A681043086004E00A490A6871
:102F600032EA000008607047083802400438024026
:102F70000024F40040787D01F80100203038024040
:102F8000403802404438024024380240F0B4002265
:102F90000022002200233DE0012414FA03F20D6810
:102FA0001540954235D1032502685E0015FA06F6F4
:102FB000B243026006680F795A0097403E430660AC
:102FC0000A79012A02D00A79022A16D182685E00A3
:102FD00015FA06F6B243826086684F795A00974028
:102FE0003E43866042689C4032EA04044460426882
:102FF0008C799C40A4B222434260C4685A00954038
:1030000034EA0505C560C468CD795A0095402C4363
:10301000C4605B1C102BBFD3F0BC7047002200695A
:1030200089B2084201D0012000E00020C0B2704700
:103030000183704741837047D2B2002A01D00183D7
:1030400000E04183704770B400230023D2B28B00AC
:1030500013F01C039A400B009BB2DB1000EB8303C0
:103060000C00A4B2E41000EB8404246A0F258E0047
:1030700016F01C06B540AC431C620B009BB2DB1083
:1030800000EB83031B6A1A4389B2C91000EB81006D
:10309000026270BC7047000010B400220488494BE3
:1030A00098420ED04D4A90420BD0B0F1804F08D0DC
:1030B000454A904205D0454A904202D0444A904247
:1030C00005D14FF68F72144022004C881443414AB8
:1030D000904208D0404A904205D04FF6FF4214403B
:1030E00022000C89144304804A68C2620A8802855F
:1030F000984202D0394A904201D1897A0186012151
:10310000818210BC7047018582827047406A704797
:10311000C9B2002904D0018851F08001018004E087
:1031200002884FF67F710A4002807047C9B20029B9
:1031300004D0018851F00101018004E002884FF6BB
:10314000FE710A400280704730B400220022002243
:10315000038C4FF6FE7213400384038C8488058B26
:103160004FF68F7215404FF6FC7215400A881543D2
:103170004FF6FD7213408A8913434A881343114A5C
:10318000904202D0154A904215D14FF6F772134083
:10319000CA8913434FF6FB7213401A008B881343FE
:1031A0004FF6FF6214404FF6FF5214400A8A144350
:1031B00022004C8A14438480058389684163038418
:1031C00030BC70470000014000040040000800408F
:1031D000000C0040001000400014004000040140BA
:1031E000416370470022038B4FF6F7721340194377
:1031F0000183704738B504000D00288800280AD1E3
:103200002B89AA886988200000F09FF8E9882000AF
:1032100000F030F825E0288804280AD12B89AA88F4
:103220006988200000F0ABF8E988200000F02BF856
:1032300017E0288808280AD12B89AA8869882000E5
:1032400000F0BAF8E988200000F027F809E02B899F
:10325000AA886988200000F0CBF8E988200000F0F7
:1032600025F831BD406B7047806B7047C06B70476D
:10327000006C7047038B4FF6F37213400383028B8D
:10328000114301837047038B4FF2FF3213400383D6
:10329000028B52EA012202837047838B4FF6F3724E
:1032A00013408383828B114381837047838B4FF25A
:1032B000FF3213408383828B52EA0122828370475C
:1032C000D2B2002A03D082891143818103E082892E
:1032D00032EA010181817047002200220022028A25
:1032E0000A408089014092B2002A04D089B20029A4
:1032F00001D0012000E00020C0B2704789B2C9436C
:1033000001827047002203894FF68F7213401943E0
:103310000181704783884FF68F72134083808288C3
:1033200011438180704703894FF6F872134003817F
:10333000028911430181704703894FF67F72134060
:103340000381028911430181704770B40024002475
:10335000058C4FF6FE7425400584058B068C4FF6D0
:103360000C7425402A4352EA03124FF6F5731E40AF
:10337000314351F001010283018470BC704770B485
:10338000002400240024058C4FF6EF7425400584AA
:10339000058B068C090140F6FF44254055EA0335AC
:1033A00055EA02254FF65F721640314351F0100185
:1033B0000583018470BC704770B40024002400248D
:1033C000058C4FF6FF6425400584858B068C090229
:1033D0004FF60C7425402A4352EA03124FF2FF5372
:1033E0001E40314351F480718283018470BC704768
:1033F00070B4002400240024058C4EF6FF74254090
:103400000584858B068C090340F6FF44254055EA68
:10341000022555EA033545F6FF721640314351F453
:1034200080518583018470BC704700001A490843AD
:103430001A4908607047002100210F23C178002934
:103440001ED01649096811F4E061D1F5E061090A5E
:10345000D1F10402DBB20B414178914082781340F4
:10346000194309010E4A0378D1540121027812F060
:103470001F0291400B4A0078401142F8201009E0E9
:103480000121027812F01F029140074A0078401192
:1034900042F82010704700000000FA050CED00E033
:1034A00000E400E000E100E080E100E000220388A9
:1034B00013F441530A8813434A8813438A881343F9
:1034C000CA8813430A8913434A8913438A891343D9
:1034D000CA8913430380838B4FF2FF7213408383A7
:1034E000098A01827047C9B2002904D0018851F0CD
:1034F0004001018004E002884FF6BF710A4002805B
:1035000070478181704700220089084201D0012064
:1035100000E00020C0B2704710B5044610460A46CD
:103520000146204600F0AEFF204610BD30B4002218
:1035300000221E4C236840F6FE72824093430D68C1
:103540004A6815438A681543C968294311FA00F08F
:103550001843206030BC7047C9B2002907D0134916
:103560000A68012313FA00F01043086007E00F49CE
:103570000A68012313FA00F032EA0000086070477D
:10358000C9B2002908D009490A684FF4805313FAD8
:1035900000F01043086008E004490A684FF48053C3
:1035A00013FA00F032EA000008607047007400402F
:1035B00000220368194A13400A681343CA68134378
:1035C0004A6913438A691343CA6913430A6A134356
:1035D0004A6A13438A6A13434A6B13438A6B134341
:1035E00003604369DB08DB00CA6A13430A6B1343B9
:1035F00043610A6942604A6882608968C1607047B5
:10360000C9B2002904D0016851F00101016003E052
:103610000168490849000160704700003F801CF0C4
:10362000C0F3C75181B1FF2906D0C110400721F076
:10363000E04101F16051704741020CBF40F4E001EC
:103640006FF000410020704700F0004100020AD0F6
:10365000B0FA80FC00FA0CF001F16051A1EB0C51C2
:1036600001EBD0214005704741EC100B01BD80B546
:1036700051EC100B01F03AF9F6E7000070B491EA52
:10368000030F4FF0004540F1B7806B40841A71EB97
:10369000030604D26E40001BB141121973414FF46E
:1036A000001C1CEB410F34BF7CEB430683E00C0D88
:1036B000A4EB1356362E00F37C80012E45EAC3237B
:1036C00041DC43EA525312BFD20292025B08240546
:1036D00045EAC12141EA5051D2EBC020994125D49D
:1036E00007D1B0FA80F610FA06F162D00020203639
:1036F00008E0B1FA81F6B140C6F1200220FA02F2E8
:103700001143B0404FEAF474B4EB465434F0010670
:103710004FEA74040AD8D6F50016760D04F000447A
:10372000F04061FA06F25040F1404840C00A40EAD9
:10373000415021F0004128BF5FEA500550F10000E0
:1037400044EBD12135E0DB0A45EAC121C90AB6F1D3
:1037500020050EDD42EA0242120CC5F1200603FAF2
:1037600006F6EB4042EA06056D42984161F1000120
:103770000DE062FA06F5F240554063FA06FC82EA73
:103780000C02F3405A406D42904161EB030111F489
:10379000801F05D1641E620502D06D004041494181
:1037A00021F48011430875F1004350F1000041EB12
:1037B000045170BC70471CEB410F15D223F000433D
:1037C00052EA43060BD04FEA4C0CBCEB410F04D835
:1037D0000C0D661E342EB7DDEBE7801A994150EAD6
:1037E000410608BF0021E4E708BF1CEB430F28BFD8
:1037F0006FF00001DDE70000841A71EB030603D2CD
:10380000001BB141121973414FF4001C1CEB410F16
:1038100034BF7CEB430442E00C0DA4EB1356352E71
:103820004FDC45EAC323DB0A45EAC121C912B6F1E0
:1038300020050DDD63FA05F6EB4086EA030512422A
:1038400018BF45F00105C01851F100010CD213E07A
:1038500062FA06F5F2405540F3415A40B340F34056
:103860005A408018594107D349085FEA30005FEA9F
:10387000350528BF45F0010501F58011420875F1B5
:10388000004250F1000041EB04514E0016F5001FBC
:1038900070BC38BF70470020090D090570471CEB4C
:1038A000410F10D252EA43060BD0BCEB410F05D8B2
:1038B0000C0DAB43661E342EB6DD02E0AB43801820
:1038C000594170BC704770BC7047000030B540F281
:1038D000FF7C1CEA11541DBF1CEA13556445654565
:1038E0003FE0641981EA030C6FF35F530CF0004C66
:1038F00043F48013C90241F0004141EA505EC50221
:103900001100A5FB020200284FF00000EEFB012091
:103910004FF00001E3FB052118BF42F001024018FF
:1039200000214941E3FB0E01A4F580640D0302D29E
:1039300092184041494154F1010470DD450872F18B
:10394000004250F1000051EB0451A1F5801102D466
:1039500041EA0C0130BD40F2FF7E4CEA0E510020DE
:1039600030BD0CEA1355644518BF654581EA030C68
:103970000CF0004C41D050EA410E1CBF52EA430EFD
:1039800002E06146002030BD24422C441BD15FEA96
:10399000050EF6D0090302BF01460020AEF1140E59
:1039A000B1FA81F5AEEB050401FA05FE0C35C5F15F
:1039B000200100FA05F5C8404EEA000E6FF35F5390
:1039C00043F480139CE733F00043B3FA83F504BF5C
:1039D000B2FA82FE75440B3D641BB5F1200E2FBF79
:1039E00002FA0EF3AB40C5F1200E22FA0EFE38BFEC
:1039F00043EA0E03AA40641C7CE750EA410E14BF60
:103A000052EA430E6FF000014FF4001515EB430F1F
:103A10008EBF194615EB410F9DE7B4D830BDD4F1E8
:103A20000104B4F120050FDAC4F12005520828BFC3
:103A300042F0010210FA05FE01FA05F57244E2BFF8
:103A4000E0402843E1400FE0352C9ADCC5F120042A
:103A500052EA400220FA05F218BF42F0010231FAA0
:103A600005F0A1400A43002172F1004250F100002C
:103A700051EB0C0130BD0000F0B540F2FF7581EA5A
:103A8000030C0CF0004C15EA11541DBF15EA135736
:103A9000AC42AF42E5E0BC41C1F31301C3F31303F1
:103AA000801A994143F4801304D2641E00184941DE
:103AB00080185941C90241EA5051B1FBF3F603FBAA
:103AC0001611A2FB0675D7EBC020A94102D2761EC3
:103AD00080185941C90241EA5051B1FBF3FE03FB82
:103AE0001E11A2FB0E75D7EBC020A94103D2AEF187
:103AF000010E80185941890241EA9051760546EA43
:103B00008E2EB1FBF3F603FB1611A2FB0675D7EB65
:103B10008020A94102D2761E80185941C90241EA8B
:103B200050514EEA060EB1FBF3F603FB1611A2FB51
:103B30000675D7EBC020A94102D2761E80185941E4
:103B4000C90241EA5051B1FBF3F703FB1711A2FB85
:103B50000735D3EBC020A94167F100070CBF004235
:103B600047F0010766F3D5274FEA1E31B80814F570
:103B7000806412DDBD0775F1004250EB0E5051EB31
:103B8000045111F5801F5CBF41EA0C01F0BD4CF0FF
:103B90007F6141F0E0410020F0BDBD076D0840EAC3
:103BA0000E5041F48011D4F10104B4F120060ADA78
:103BB000C4F120060200E04001FA06F3E140184398
:103BC000B24015430EE0342C13DCC6F1200445EA64
:103BD00040056D0820FA06F2154321FA06F0A140CF
:103BE0000D43002175F1004250F1000051EB0C0132
:103BF000F0BD00205FEA0C01F0BDCFB992185B4127
:103C0000B3FA83F704BFB2FA82F6BF190B3FB7F1DC
:103C100020062FBF02FA06F3BB40C7F1200622FAA6
:103C200006F638BF3343BA401CB1E419641E33E7CB
:103C30007F4231F00041B1FA81F404BFB0FA80F65E
:103C4000A4190B3CB4F120062FBF00FA06F1A140E5
:103C5000C4F1200620FA06F638BF3143A0403C1BD1
:103C60001AE7AC421ABF05EA1357AF4212E050EA16
:103C700041061CBF52EA4306BFE750EA41073046FF
:103C800061461CBF41EA0551F0BD52EA430C08BF32
:103C9000C143F0BD00204FF4001616EB410F98BF52
:103CA00016EB430F08BF16EB410F24BFC14305E0DD
:103CB00016EB430F0CBF61464CEA0551F0BD000006
:103CC000C1F30A5340F21E42D31A0CDDCA0283F339
:103CD000070342EA505242F00042DA4002EBE1723E
:103CE00082EAE17070476FEAE17203F2E13008B1F5
:103CF00082F000407047000010B4002200234468A6
:103D0000544A14400A7954EA02240A68144344606D
:103D10008468514A14400A691443CA6814438A6883
:103D200014434A7954EA42048460C26A32F470024D
:103D3000097D491E0B43DBB252EA0352C26210BC3A
:103D400070470021454B1A6845490A4001680A43FB
:103D500041680A4381680A43C06802431A60704799
:103D6000C9B2002904D0816851F00101816003E0EB
:103D700081684908490081607047F0B4002400243C
:103D80000C00E4B20A2C12DBC5680726B1F10A0464
:103D9000032714FB07F4A640B543DBB2B1F10A04D4
:103DA000032614FB06F4A3402B43C3600DE0056912
:103DB0000726032411FB04F4A640B543DBB2032419
:103DC00011FB04F4A3402B4303611300DBB2072B68
:103DD00010DA446B1F25531E052613FB06F39D4086
:103DE000AC43C9B2521E052312FB03F2914021439A
:103DF000416325E01300DBB20D2B10DA046B1F25A5
:103E0000D31F052613FB06F39D40AC43C9B2D21F56
:103E1000052312FB03F291402143016310E0C46AC1
:103E20001F25B2F10D03052613FB06F39D40AC439D
:103E3000C9B20D3A052312FB03F291402143C1623E
:103E4000F0BC7047816851F0804181607047C06C60
:103E500080B27047FFFEFFFCFDF7FFC00423014066
:103E6000E030FCFF00220068C9B2084201D0012006
:103E700000E00020C0B2704714490A6832F0040222
:103E80000A600100C9B2C908114A1170C0B24FF4EA
:103E90007A714843C0080F490880704780B20D49C5
:103EA000098848430C4908600C4900200860074A0B
:103EB00001201060106810F001100128FAD00020D5
:103EC00010600020086070470000000010E000E073
:103ED000340700203007002014E000E018E000E084
:103EE00038B50400200080B24FF4077190FBF1F563
:103EF000A4B24FF4077094FBF0F100FB114404E00E
:103F00004FF40770FFF7CAFF6D1E2800C0B20028EB
:103F1000F6D1200080B2002803D0200080B2FFF745
:103F2000BDFF31BD01F000428B1AA3F16051B1F524
:103F3000801F0ADBB1F17F6F1FD242EAC102C100CC
:103F400071F1004142EB507070470B15C3F109034A
:103F5000212B10D2890241EA905180020128494167
:103F600041F0004121FA03F0C3F12003994071F1BF
:103F7000004150417047100070476FF0000013EB94
:103F8000103F5CBF000E42EAC05070470022002282
:103F9000036833F002030360036853F00103036016
:103FA00000E0521C4368DB0703D44FF6FF739A42CC
:103FB000F7D14268D20701D400206AE08A79012A49
:103FC00004D1026852F08002026003E0026832F01D
:103FD00080020260CA79012A04D1026852F04002CC
:103FE000026003E0026832F0400202600A7A012AAD
:103FF00004D1026852F02002026003E0026832F04D
:10400000200202604A7A012A04D1026852F01002AA
:10401000026003E0026832F0100202608A7A012A2C
:1040200004D1026852F00802026003E0026832F034
:1040300008020260CA7A012A04D1026852F004021E
:10404000026003E0026832F0040202608A78CB78F2
:104050001B0653EA82730A7953EA02434A7953EA08
:1040600002530988491E0B43C3610168490849008E
:104070000160002100E0491C4268D20703D54FF6D9
:10408000FF729142F7D14068C00701D5002000E0DF
:104090000120C0B2704770B400210122817A8A40A9
:1040A000DFF8AC331C68DFF8AC130C431C60DFF89E
:1040B000A843216891432160017B002915D1DFF8D5
:1040C0009C130D6895430D60DFF89413C5884688EE
:1040D00056EA0546857A41F83560857A01EBC501D7
:1040E0008588068856EA05464E60017B012915D170
:1040F000DFF868130D6815430D60DFF86413058859
:10410000468856EA0546857A41F83560857A01EB9E
:10411000C5018588C68856EA05464E60C17A0029E1
:1041200005D1DFF840130D6895430D6004E0DFF81A
:1041300034130D6815430D600189002904D1DFF89F
:1041400028130D6895430D600189012904D1DFF81A
:1041500018130D6815430D60407B012802D12068BB
:1041600002432260186840084000186070BC704725
:1041700010B400228268520101D500220AE0826850
:10418000120101D5012205E08268D20001D5022288
:1041900000E004221300DBB2042B00F08480130043
:1041A000DBB21B010344D3F8803113F00103140088
:1041B000E4B224010444C4F880310B7A002B11D1FD
:1041C0001300DBB21B010344D3F880410B6854EAAF
:1041D00043544B7A1C431300DBB21B010344C3F866
:1041E000804112E01300DBB21B010344D3F880418D
:1041F0004B6854EAC3040B7A1C434B7A1C431300EC
:10420000DBB21B010344C3F880418B7A13F00F0328
:104210008B721300DBB21B010344D3F884311B09FA
:104220001B011400E4B224010444C4F884311300D7
:10423000DBB21B010344D3F884418B7A1C43130087
:10424000DBB21B010344C3F884418B7B4C7B240409
:1042500054EA03640B7B54EA0324CB7A1C43130017
:10426000DBB21B010344C3F888418B7C4C7C2404E3
:1042700054EA03640B7C54EA0324C97B0C43110009
:10428000C9B209010144C1F88C411100C9B2090148
:104290000144D1F8801151F001011300DBB21B0180
:1042A0001844C0F880111000C0B210BC7047002242
:1042B000C9B2002903D002290BD005D30EE08168D2
:1042C000DFF8A80108400AE08168DFF8A40108408F
:1042D00005E08168DFF89C01084000E0002000282C
:1042E00016D0DFF89411401A14D0801E18D0DFF8D1
:1042F0008C11401A10D04FF40071401A12D0DFF820
:104300008011401A0AD05FF40031401A0CD00DE041
:1043100002200CE000200AE0002008E0002006E077
:10432000012004E0012002E0012000E00020C0B2F2
:1043300070470B00DBB21B010344D3F8B03113F01C
:1043400004031372137A002B08D10B00DBB21B019C
:104350000344D3F8B0315B0D136007E00B00DBB210
:104360001B010344D3F8B031DB0853600B00DBB210
:104370001B010344D3F8B03113F0020353720B0056
:10438000DBB21B010344D3F8B43113F00F03937273
:104390000B00DBB21B010344D3F8B4311B0AD37406
:1043A0000B00DBB21B010344D3F8B831D3720B000E
:1043B000DBB21B010344D3F8B8311B0A13730B00A3
:1043C000DBB21B010344D3F8B8311B0C53730B0051
:1043D000DBB21B010344D3F8B8311B0E93730B00FF
:1043E000DBB21B010344D3F8BC31D3730B00DBB247
:1043F0001B010344D3F8BC311B0A13740B00DBB25E
:104400001B010344D3F8BC311B0C53740B00DBB20B
:104410001B010344D3F8BC311B0E9374C9B20029AD
:1044200004D1C16851F02001C16003E0016951F07D
:10443000200101617047D2B2002A03D042691143C2
:10444000416103E0426932EA0101416170470000C5
:1044500000660040011C1C2A1C6600400C660040DF
:1044600040660040046600401466004003000004FB
:10447000000300080000031001000004FD00000418
:1044800000FD000862F30F2262F31F42401810F093
:10449000030308D0C91A1FD3DB0748BF00F8012D5A
:1044A00028BF20F8022D130030B4144615461039E9
:1044B00028BF20E93C00FAD8490728BF20E90C00B2
:1044C00048BF40F8042D890028BF20F8022D48BFBE
:1044D00000F8012D30BC7047C91818BF00F8012D35
:1044E000CB0728BF00F8012D70470000F8B52DED6F
:1044F000068B174641EC180BDFF86023DFF86033BA
:10450000FFF7E4F941EC190B0C4624F00041DFF809
:104510005423DFF8543300F0EBF958D29FEDCD0B64
:1045200051EC100B04F00044214353EC192BFFF71E
:10453000A5F8FFF7C5FB060045D000F0F3F900220F
:10454000CB4BFFF7C3F941EC190B4FF0A042C94B1D
:10455000FFF7BCF953EC182BFFF790F804460D4613
:1045600051EC190B4FF0C042C34BFFF7AFF9224695
:104570002B46FFF783F804460D4651EC190B4FF01C
:104580000052BE4BFFF7A2F922462B46FFF776F802
:1045900004460D4651EC190B0022B94BFFF796F972
:1045A00022462B46FFF76AF804460D4651EC190BDC
:1045B0004FF00052AD4BFFF789F922462B46FFF72B
:1045C0005DF841EC180B06F00306F719AEE053EC6A
:1045D000182B590041EAD2714815C91710F1010F83
:1045E00014D14FF0FF34A14208BFA04208D11B03F1
:1045F00043EA12531203002B08BF002A40F0258122
:10460000BDEC068B20466FF00041F4BD22F00000A7
:1046100033F0004108BF002805D1002F00F01581BC
:104620009FED988B11E19FED8B0B51EC100B04F07B
:104630000044214353EC192BFFF720F84B0043EAC9
:10464000D073420041EC190B002B08BF002A19D08F
:1046500040F23344A4EB5354352C04DB00F000004B
:1046600001F000410CE0202C03DD203CE140A140A2
:1046700000E001D1002003E0002CC4BFE040A040D6
:1046800041EC190B51EC190B20F0000231F0004302
:1046900008BF002A43D00022754BFFF717F941EC01
:1046A0001A0B4FF0A042734BFFF710F953EC182B85
:1046B000FEF7E4FF04460D4651EC1A0B4FF0C042E2
:1046C0006D4BFFF703F922462B46FEF7D7FF044652
:1046D0000D4651EC1A0B4FF00052684BFFF7F6F8FD
:1046E00022462B46FEF7CAFF04460D4651EC1A0B34
:1046F0000022634BFFF7EAF822462B46FEF7BEFF87
:1047000004460D4651EC1A0B4FF00052574BFFF781
:10471000DDF822462B46FEF7B1FF41EC180B51ECB9
:10472000190BFFF7CDFA00F00300C71951EC180B75
:1047300021F0004100224FF0795300F0D9F804D263
:10474000F8077AD59FED4F8B77E051EC180B53ECBF
:10475000182BFFF7BBF841EC190BF80731D551ECDA
:10476000190B4A4A4A4BFFF7B1F84A4A4A4BFEF73F
:1047700085FF53EC192BFFF7A9F8484A484BFEF781
:104780007DFF53EC192BFFF7A1F8464A464BFEF785
:1047900075FF53EC192BFFF799F8444A444BFEF789
:1047A0006DFF53EC192BFFF791F86FF05102414B5D
:1047B000FEF764FF53EC192BFFF788F800223E4BFD
:1047C00037E051EC180B53EC192BFFF77FF8044638
:1047D0000D4651EC190B394A394BFFF777F8394A36
:1047E000394BFEF74BFF53EC192BFFF76FF8374AA5
:1047F000374BFEF743FF53EC192BFFF767F8354AA9
:10480000354BFEF73BFF53EC192BFFF75FF8334AAC
:10481000334BFEF733FF53EC192BFFF757F8314AB0
:10482000314BFEF72BFF22462B46FFF74FF853EC98
:10483000182BFEF723FF41EC180BB80705D551ECF8
:10484000180B81F0004141EC180B51EC180BBDEC3A
:10485000068BF4BD000000000000E03F83C8C96D76
:10486000305FE43F0000A0FFFFFFDF419A833BBBC6
:104870000000303EFB21B9C1B41011C026A651BEC4
:104880005C14D3BC000000000000F03F09260A10B1
:1048900039BA213E3BA861C6F97D92BE63AC309027
:1048A0009F01FA3EF6FB51166CC156BFB102555539
:1048B0005555A53FFFFFDFBF0000F03FB08F2FC36E
:1048C00010D8E53D8F0C73A1E1E55ABE4DADE44F24
:1048D000E31DC73E3EE3B519A0012ABFFAF010114F
:1048E0001111813F425555555555C5BF0022FDE573
:1048F00041EA030C50EA4C0C52EA0C0C4FF4001C39
:1049000009D307D01CEB410F9CBF1CEB430F8B421C
:1049100008BF824270471CEB430FFBD8994208BF87
:104920009042704710F0004160B148BF4042B0FA79
:1049300080F29040D21CC2F5846241EA025202EB3E
:10494000D0214005704700007047FEE7FEE7FEE714
:10495000FEE7704770477047704710B5DFF8A84909
:1049600001212000FEF7B8FC012811D1DFF89C09D5
:104970000178491C01700121DFF894291170017838
:104980000A2905D10121DFF88C291170002101705D
:1049900001212000FEF7B2FC10BD00B585B06A46CB
:1049A0000121DFF87409FFF7C4FCDFF870199DF8E6
:1049B00013000A8980B2904207D26846C9689DF800
:1049C000132012011144C968884705B000BD00B525
:1049D00085B06A460021DFF84809FFF7AAFCDFF836
:1049E0003C199DF813000A8880B2904207D26846AD
:1049F00049689DF8132012011144C968884705B021
:104A000000BD2DE9F843DFF81C693068401C3060B8
:104A10003068062813D3DFF8104902212000FEF782
:104A20006DFC04212000FEF769FC08212000FEF740
:104A300065FC10212000FEF761FC00203060DFF8EB
:104A4000E84804212000FEF747FC01281AD1DFF8CE
:104A5000DC582868012815D104212000FEF74EFCFF
:104A6000DFF8CC78DFF8CC08FEF750FB3860200088
:104A7000FEF7FAFB396850EA0140DFF8BC1808601D
:104A80000220286002212000FEF726FC012877D1B1
:104A900002212000FEF732FCDFF89478DFF894085A
:104AA000FEF734FB3860DFF884582868022858D1B4
:104AB0002000FEF7D7FBDFF88428396850EA014070
:104AC0001060DFF87C180868136898420CD21268EE
:104AD0000868121ADFF86C080260DFF85C281368B7
:104AE00008681B1A13600FE04FF6FF7312689A18DC
:104AF0000868121ADFF84C080260DFF83C281068DA
:104B00001B1808681B1A1360DFF83878DFF82808CC
:104B100001683A68914217D2006800F07DFC804637
:104B20008946386800F078FC02000B004046494690
:104B3000FEF7A2FF0022DFF81038FEF7C7FEFFF7EE
:104B4000F1F9DFF808180860DFF804083968B0FBED
:104B5000F1F0DFF8001808600020306000202860C5
:104B60000EE004212000FEF7C9FB2000FEF77AFBCF
:104B7000396850EA0140DFF8C81708600120286052
:104B800010212000FEF7A8FB01281AD1DFF8C85732
:104B90002868012815D110212000FEF7AFFBDFF8AF
:104BA0009077DFF89007FEF7B1FA38602000FEF743
:104BB0005FFB396850EA0140DFF8A0170860022067
:104BC000286008212000FEF787FB01287AD1082100
:104BD0002000FEF793FBDFF85857DFF85807FEF781
:104BE00095FA2860DFF87077386802285BD12000DA
:104BF000FEF73CFBDFF86837296850EA014018608F
:104C0000DFF8601708681A6890420CD21A680868C2
:104C1000121ADFF830070260DFF8402713680868CF
:104C20001B1A13600FE04FF6FF721B68D318086859
:104C30001B1ADFF810070360DFF820371868121816
:104C40000868121A1A60DFF81407DFF8F88601689E
:104C5000D8F80020914218D2006800F0DDFB040073
:104C60000D00D8F8000000F0D7FB02000B00200078
:104C70002900FEF701FF0022DFF8CC36FEF726FE02
:104C8000FFF750F9DFF8E0160860DFF8C406D8F83F
:104C90000010B0FBF1F0DFF8D4160860002030609F
:104CA000002038600EE010212000FEF727FB2000D6
:104CB000FEF7DCFA296850EA0140DFF8A816086020
:104CC00001203860BDE8F1832DE9F843DFF8544650
:104CD0002068401C20602068062815D302215FF060
:104CE0008040FEF70BFB04215FF08040FEF706FBDF
:104CF00008215FF08040FEF701FB10215FF080404B
:104D0000FEF7FCFA0020206002215FF08040FEF7F1
:104D1000E3FA012860D102215FF08040FEF7EEFA4D
:104D2000DFF84C562868002809D15FF08040FEF774
:104D300099FADFF84016086001202860B2E0286880
:104D4000012840F0AF805FF08040FEF78BFADFF87B
:104D50002866DFF820763968401A30605FF08040BE
:104D6000FEF782FADFF814263968401A10601068DE
:104D70003168884217D2106800F04EFB80468946A1
:104D8000306800F049FB02000B0040464946FEF740
:104D900073FE0022DFF8B035FEF798FDFFF7C2F88A
:104DA000DFF8DC150860306800F036FB02000B000D
:104DB0000020DFF8D015FEF75FFE00F03BFBDFF8C8
:104DC000C8150860002028600020206004215FF0E2
:104DD0008040FEF793FA65E008215FF08040FEF71F
:104DE0007BFA01285ED108215FF08040FEF786FA49
:104DF000DFF898552868002809D15FF08040FEF759
:104E000035FADFF88C150860012028604AE0286830
:104E1000012847D15FF08040FEF728FADFF874657B
:104E2000DFF86C753968401A30605FF08040FEF73B
:104E30001FFADFF864253968401A1060106831687D
:104E4000884217D2106800F0E7FA80468946306839
:104E500000F0E2FA02000B0040464946FEF70CFE65
:104E60000022DFF8E434FEF731FDFFF75BF8DFF8EE
:104E70002C150860306800F0CFFA02000B0000200B
:104E8000DFF80015FEF7F8FD00F0D4FADFF8101592
:104E90000860002028600020206010215FF0804022
:104EA000FEF72CFABDE8F1832DE9F843DFF87444EE
:104EB0002068401C20602068062813D3DFF8E454E3
:104EC00002212800FEF71AFA04212800FEF716FA3C
:104ED00008212800FEF712FA10212800FEF70EFA2A
:104EE00000202060DFF8BC5402212800FEF7F4F90E
:104EF00001285DD102212800FEF700FADFF8A8643E
:104F00003068002808D12800FEF7ACF9DFF89C14BF
:104F1000086001203060B3E03068012840F0B080C4
:104F20002800FEF79FF9DFF88874DFF88084D8F84E
:104F30000010401A38602800FEF796F9DFF8742454
:104F4000D8F80010401A106010683968884217D2EB
:104F5000106800F061FA80468946386800F05CFA13
:104F600002000B0040464946FEF786FD0022DFF8AE
:104F7000D833FEF7ABFCFEF7D5FFDFF83C14086032
:104F8000386800F049FA02000B000020DFF8F41343
:104F9000FEF772FD00F04EFADFF8201408600020E2
:104FA00030600020206004212800FEF7A7F967E0A8
:104FB00010212800FEF790F9012861D11021280066
:104FC000FEF79CF9DFF8F8633068002808D1280064
:104FD000FEF74EF9DFF8EC130860012030604FE077
:104FE000306801284CD12800FEF740F9DFF8D8835B
:104FF000DFF8D093D9F80010401AC8F80000280054
:10500000FEF736F9DFF8C473D9F80010401A38609B
:10501000D8F80000396888421CD2D8F8000000F0A7
:10502000FBF90022DFF8A833FEF726FD804689460B
:10503000386800F0F1F902000B0040464946FEF7DF
:105040001BFD0022C04BFEF741FCFEF76BFFDFF8B3
:1050500084130860386800F0DFF902000B000020BC
:10506000C849FEF709FD00F0E5F9DFF86C130860A8
:10507000002030600020206008212800FEF73EF963
:10508000BDE8F1832DE9F843A64E3068401C30603E
:105090003068062812D3D14C02212000FEF72EF9E9
:1050A00004212000FEF72AF908212000FEF726F946
:1050B00010212000FEF722F900203060C74C0421A7
:1050C0002000FEF709F9012816D1C54D28680128EE
:1050D00012D104212000FEF711F9C24FC248FEF799
:1050E00015F838602000FEF7BFF8396850EA014033
:1050F000BE4908600220286002212000FEF7ECF87B
:1051000001286BD102212000FEF7F8F8B54FB64810
:10511000FDF7FCFF3860B24D2868022850D1042109
:105120002000FEF7EBF82000FEF79CF8B04A396843
:1051300050EA01401060AF490868136898420AD2EB
:1051400012680868121A7F480260A84A1368086843
:105150001B1A13600DE04FF6FF7312689A18086867
:10516000121A78480260A14A10681B1808681B1AB6
:105170001360744F9D4801683A68914215D20068E7
:1051800000F04AF980468946386800F045F9020087
:105190000B0040464946FEF76FFC00226A4BFEF7C3
:1051A00095FBFEF7BFFE9449086069483968B0FB7B
:1051B000F1F09249086000203060002028600DE086
:1051C00004212000FEF79AF82000FEF74BF839681A
:1051D00050EA014087490860012028601021200022
:1051E000FEF77AF8012816D1854D2868012812D1DA
:1051F00010212000FEF782F87A4F7B48FDF786FFEA
:1052000038602000FEF734F8396850EA01407D49E3
:1052100008600220286008212000FEF75DF80128C0
:105220006FD108212000FEF769F86E4D6E48FDF73A
:105230006DFF2860724F3868022854D10821200081
:10524000FEF75CF82000FEF711F86F4B296850EA72
:10525000014018606D4908681A6890420AD21A68BD
:105260000868121A37480260664A136808681B1AF1
:1052700013600DE04FF6FF721B68D31808681B1A05
:10528000304803605F4B186812180868121A1A60D9
:105290005C48DFF8B0800168D8F80020914216D24F
:1052A000006800F0B9F804000D00D8F8000000F024
:1052B000B3F802000B0020002900FEF7DDFB0022FE
:1052C000214BFEF703FBFEF72DFE514908602048F5
:1052D000D8F80010B0FBF1F04E49086000203060B3
:1052E000002038600DE010212000FEF707F82000B4
:1052F000FDF7BCFF296850EA0140444908600120DD
:105300003860BDE8F183000000140040350700203C
:10531000230200202202002000680040A45C000854
:105320000064004064060020000001406806002080
:105330005C0600200004004074060020780600206F
:105340007006002060060020000059408C060020F6
:1053500040420F00880600206C06002080060020D6
:10536000840600207C060020940600209006002081
:1053700098060020A0060020A8060020A406002011
:10538000BC06002080842E41B80600209C06002028
:10539000AC060020B4060020B0060020C4060020A1
:1053A000C0060020000C0040C8060020D0060020E7
:1053B000D8060020D4060020EC060020E8060020D5
:1053C000CC060020DC060020E0060020E4060020D9
:1053D0000000F03FF4060020F00600200004014029
:1053E000FC060020F8060020000800400807002006
:1053F0000C07002004070020200700201C070020C5
:1054000000070020140700201807002010070020C4
:10541000280700202407002050B1B0FA80F188400E
:10542000C91CC1F58461090501EBD0214005704715
:1054300001467047400D40F21E4C40EAC120BCEBD3
:10544000115C40F0004003D48CF30701C840704762
:105450006FEAE1707047000038B584B005000C00B9
:105460000020002000200020A0890028298A31F493
:105470004051E08801432982A98928480140A08839
:1054800001432089014360890143A981A98A31F43C
:105490004071A0890143A9826846FDF7CDFC1D48F3
:1054A000854202D01C48854201D1039900E002994F
:1054B000A889000406D51920414320684000B1FBAB
:1054C000F0F205E01920414320688000B1FBF0F2C2
:1054D0006420B2FBF0F109010B001B097FF06300AF
:1054E00000FB0322A889000408D5D20032326420D0
:1054F000B2FBF0F010F00700014307E01201323276
:105500006420B2FBF0F010F00F000143298105B0D8
:1055100030BD00000010014000140140F3E9FFFF1E
:10552000C9B2002904D0818951F40051818104E07D
:1055300082894DF6FF710A40828170478088C005DC
:10554000C00D704710B400230023002300230B007C
:1055500040F66A149BB2A3420B00DBB25B09DBB2DC
:1055600089B211F01F01012414FA01F1012B01D1BC
:105570000C3004E0022B01D1103000E01430D2B224
:10558000002A03D002681143016003E0026832EA96
:105590000101016010BC704710B4002200220022FB
:1055A00000220A0040F66A1392B29A420B00DBB264
:1055B0005B09DBB20A0092B212F01F02012414FA56
:1055C00002F2012B02D183891A4006E0022B02D19C
:1055D000038A1A4001E0838A1A4089B2090A89B213
:1055E00014FA01F100880140002A03D0002901D0FB
:1055F000012000E00020C0B210BC704780B54348D5
:10560000016851F4700101604149086850F00100DF
:10561000086000203F4A10600A683F4802400A6064
:105620003E483F4A1060086830F48020086000203F
:105630003C49086000F005F85FF000603A490860F6
:1056400001BD1CB400200190002000903049086882
:1056500050F480300860086810F400300090019821
:10566000401C01900098002803D10198B0F5A04F8C
:10567000F1D10868800302D50120009001E00020EC
:105680000090009801283ED12848026852F08052CC
:1056900002602748026852F4404202601D4A1368C3
:1056A0001360136853F400431360136853F4A0535A
:1056B0001360204B1A4C23600B6853F080730B600F
:1056C0000B689B01FCD5016851F4803101601A49D7
:1056D0000B68DB03FBD5036853F4003303600868F1
:1056E0008003FCD540F205701449086010688008FA
:1056F00080001060106850F002001060106810F018
:105700000C000828FAD113BC7047000088ED00E0B7
:105710000038024008380240FFFFF6FE1030002437
:10572000043802400C38024008ED00E040380240E6
:1057300000700040195A400704700040003C0240CD
:1057400030B587B0040001210120FDF7D5FB012110
:105750001020FDF7EDFB414D072209212800FDF740
:1057600072FC07220A212800FDF76DFC4FF4C0608F
:10577000019002208DF8080002208DF80900002019
:105780008DF80A0001208DF80B0001A92800FDF713
:10579000FDFB03940020ADF810000020ADF81200CE
:1057A0000020ADF814000020ADF818000C20ADF872
:1057B00016002B4C03A92000FFF74EFE012120000C
:1057C000FFF7AEFE012240F225512000FFF7BAFE9E
:1057D00025208DF8000003208DF8010000208DF8B1
:1057E000020001208DF803006846FDF724FE07B093
:1057F00030BD10B51A4C40F225512000FFF7CCFE09
:1058000000282AD02000FFF799FE16490A881204C2
:1058100023D40A8852040AD5C0B20A2802D0002034
:1058200008801AE0088850F40040088015E0020063
:10583000D2B20D2A04D1088850F4804008800CE0D0
:10584000094A0B889B049B0CD0540888401C088094
:105850000888C82801DB0020088010BD0000024035
:1058600000100140320700201C05002070B51424F0
:10587000DFF8FC500600F6B266432E44F1600100EA
:10588000C9B2614329440A610100C9B26143294494
:10589000DFF8E0204A600100C9B261432944087280
:1058A0000100C9B261436B54C0B260432844FDF7A4
:1058B0000EFA70BD70B51424DFF8BC500600F6B2C5
:1058C00066432E44F1600100C9B2614329440A6174
:1058D0000100C9B261432944DFF8A0204A600100F9
:1058E000C9B26143294408720100C9B261436B54D3
:1058F000C0B260432844FDF7EAF970BD38B5002214
:10590000FA21DFF87000FDF789F90022FA21DFF8AB
:105910006C00FDF783F900250FE060682901084459
:10592000037A606829010844426860682901415887
:105930002800C0B2FFF79AFF6D1CDFF844402088B2
:105940008542EADB00250FE0E06829010844037A7C
:10595000E068290108444268E068290141582800AC
:10596000C0B2FFF7A7FF6D1C20898542ECDB31BD7B
:1059700024020020006400403C0300200068004036
:10598000A45C000811000000FF07000000000000F8
:10599000AD01000822000000FF0700000000000029
:1059A000AD01000823000000FF0700000000000018
:1059B000AD01000824000000FF0700000000000007
:1059C000AD01000815000000FF0700000000000006
:1059D000AD01000816000000FF07000000000000F5
:1059E000AD01000817000000FF07000000000000E4
:1059F000AD01000818000000FF07000000000000D3
:105A0000AD0100081C000000FF07000000000000BE
:105A1000AD0100081D000000FF07000000000000AD
:105A2000AD01000841000000FF0700000000000079
:105A30000702000842000000FF070000000000000D
:105A40000702000843000000FF07000000000000FC
:105A50000702000844000000FF07000000000000EB
:105A60000702000845000000FF07000000000000DA
:105A7000070200082DE9FC4D016800F108054908FE
:105A800005EBC102019200F10803406800F0010A31
:105A900003EBC108400808EBC00B0020002105E023
:105AA000009A964218BF16F9014B0CD1019A954203
:105AB00006D02B686A68EE18324400920835EFE78A
:105AC0005846BDE8F68D009A964205D12B686A6863
:105AD000EE1832440092083516F8017B884210D146
